{
  "address": "0xF1f47557E0cBA9BF063087c03A2FeA1FdD3B939A",
  "abi": [
    {
      "inputs": [],
      "stateMutability": "nonpayable",
      "type": "constructor"
    },
    {
      "inputs": [],
      "name": "ALREADY_CLAIMED",
      "type": "error"
    },
    {
      "inputs": [],
      "name": "ASSET_NOT_SUPPORTED",
      "type": "error"
    },
    {
      "inputs": [],
      "name": "INSUFFICIENT_BALANCE",
      "type": "error"
    },
    {
      "inputs": [],
      "name": "INVALID_AMOUNT",
      "type": "error"
    },
    {
      "inputs": [],
      "name": "INVALID_PROOF",
      "type": "error"
    },
    {
      "inputs": [],
      "name": "INVALID_ROOT_HASH",
      "type": "error"
    },
    {
      "inputs": [
        {
          "internalType": "uint256",
          "name": "latestRewards",
          "type": "uint256"
        },
        {
          "internalType": "uint256",
          "name": "periodicity",
          "type": "uint256"
        },
        {
          "internalType": "uint256",
          "name": "blockTimestamp",
          "type": "uint256"
        }
      ],
      "name": "REWARDS_TOO_FAST",
      "type": "error"
    },
    {
      "inputs": [],
      "name": "TRANSFER_FAILED",
      "type": "error"
    },
    {
      "anonymous": false,
      "inputs": [
        {
          "indexed": false,
          "internalType": "address",
          "name": "previousAdmin",
          "type": "address"
        },
        {
          "indexed": false,
          "internalType": "address",
          "name": "newAdmin",
          "type": "address"
        }
      ],
      "name": "AdminChanged",
      "type": "event"
    },
    {
      "anonymous": false,
      "inputs": [
        {
          "indexed": true,
          "internalType": "address",
          "name": "beacon",
          "type": "address"
        }
      ],
      "name": "BeaconUpgraded",
      "type": "event"
    },
    {
      "anonymous": false,
      "inputs": [
        {
          "indexed": false,
          "internalType": "uint8",
          "name": "version",
          "type": "uint8"
        }
      ],
      "name": "Initialized",
      "type": "event"
    },
    {
      "anonymous": false,
      "inputs": [
        {
          "indexed": false,
          "internalType": "address",
          "name": "account",
          "type": "address"
        }
      ],
      "name": "Paused",
      "type": "event"
    },
    {
      "anonymous": false,
      "inputs": [
        {
          "indexed": true,
          "internalType": "bytes32",
          "name": "role",
          "type": "bytes32"
        },
        {
          "indexed": true,
          "internalType": "bytes32",
          "name": "previousAdminRole",
          "type": "bytes32"
        },
        {
          "indexed": true,
          "internalType": "bytes32",
          "name": "newAdminRole",
          "type": "bytes32"
        }
      ],
      "name": "RoleAdminChanged",
      "type": "event"
    },
    {
      "anonymous": false,
      "inputs": [
        {
          "indexed": true,
          "internalType": "bytes32",
          "name": "role",
          "type": "bytes32"
        },
        {
          "indexed": true,
          "internalType": "address",
          "name": "account",
          "type": "address"
        },
        {
          "indexed": true,
          "internalType": "address",
          "name": "sender",
          "type": "address"
        }
      ],
      "name": "RoleGranted",
      "type": "event"
    },
    {
      "anonymous": false,
      "inputs": [
        {
          "indexed": true,
          "internalType": "bytes32",
          "name": "role",
          "type": "bytes32"
        },
        {
          "indexed": true,
          "internalType": "address",
          "name": "account",
          "type": "address"
        },
        {
          "indexed": true,
          "internalType": "address",
          "name": "sender",
          "type": "address"
        }
      ],
      "name": "RoleRevoked",
      "type": "event"
    },
    {
      "anonymous": false,
      "inputs": [
        {
          "indexed": false,
          "internalType": "address",
          "name": "account",
          "type": "address"
        }
      ],
      "name": "Unpaused",
      "type": "event"
    },
    {
      "anonymous": false,
      "inputs": [
        {
          "indexed": true,
          "internalType": "address",
          "name": "implementation",
          "type": "address"
        }
      ],
      "name": "Upgraded",
      "type": "event"
    },
    {
      "stateMutability": "payable",
      "type": "fallback"
    },
    {
      "inputs": [],
      "name": "DEFAULT_ADMIN_ROLE",
      "outputs": [
        {
          "internalType": "bytes32",
          "name": "",
          "type": "bytes32"
        }
      ],
      "stateMutability": "view",
      "type": "function"
    },
    {
      "inputs": [
        {
          "internalType": "address",
          "name": "_arbitrator",
          "type": "address"
        }
      ],
      "name": "addArbitrator",
      "outputs": [],
      "stateMutability": "nonpayable",
      "type": "function"
    },
    {
      "inputs": [
        {
          "internalType": "address",
          "name": "_asset",
          "type": "address"
        }
      ],
      "name": "approveAsset",
      "outputs": [],
      "stateMutability": "nonpayable",
      "type": "function"
    },
    {
      "inputs": [
        {
          "internalType": "address",
          "name": "",
          "type": "address"
        }
      ],
      "name": "arbitrators",
      "outputs": [
        {
          "internalType": "bool",
          "name": "",
          "type": "bool"
        }
      ],
      "stateMutability": "view",
      "type": "function"
    },
    {
      "inputs": [],
      "name": "assetCount",
      "outputs": [
        {
          "internalType": "uint8",
          "name": "",
          "type": "uint8"
        }
      ],
      "stateMutability": "view",
      "type": "function"
    },
    {
      "inputs": [
        {
          "internalType": "uint8",
          "name": "",
          "type": "uint8"
        }
      ],
      "name": "assets",
      "outputs": [
        {
          "internalType": "address",
          "name": "",
          "type": "address"
        }
      ],
      "stateMutability": "view",
      "type": "function"
    },
    {
      "inputs": [
        {
          "internalType": "address",
          "name": "",
          "type": "address"
        }
      ],
      "name": "balances",
      "outputs": [
        {
          "internalType": "uint256",
          "name": "",
          "type": "uint256"
        }
      ],
      "stateMutability": "view",
      "type": "function"
    },
    {
      "inputs": [
        {
          "internalType": "uint256",
          "name": "_newPeriod",
          "type": "uint256"
        }
      ],
      "name": "changePeriodicity",
      "outputs": [],
      "stateMutability": "nonpayable",
      "type": "function"
    },
    {
      "inputs": [
        {
          "internalType": "uint256",
          "name": "rootHashId",
          "type": "uint256"
        },
        {
          "internalType": "bytes32",
          "name": "rootHash",
          "type": "bytes32"
        },
        {
          "internalType": "bytes32[]",
          "name": "proof",
          "type": "bytes32[]"
        },
        {
          "internalType": "address",
          "name": "_token",
          "type": "address"
        },
        {
          "internalType": "uint256",
          "name": "_amount",
          "type": "uint256"
        }
      ],
      "name": "claimRewards",
      "outputs": [],
      "stateMutability": "nonpayable",
      "type": "function"
    },
    {
      "inputs": [
        {
          "internalType": "bytes32",
          "name": "rootHash",
          "type": "bytes32"
        }
      ],
      "name": "deployRewards",
      "outputs": [],
      "stateMutability": "nonpayable",
      "type": "function"
    },
    {
      "inputs": [
        {
          "internalType": "address",
          "name": "_asset",
          "type": "address"
        },
        {
          "internalType": "uint256",
          "name": "_amount",
          "type": "uint256"
        }
      ],
      "name": "deposit",
      "outputs": [],
      "stateMutability": "payable",
      "type": "function"
    },
    {
      "inputs": [
        {
          "internalType": "address",
          "name": "_token",
          "type": "address"
        }
      ],
      "name": "getPrice",
      "outputs": [
        {
          "internalType": "uint256",
          "name": "",
          "type": "uint256"
        }
      ],
      "stateMutability": "view",
      "type": "function"
    },
    {
      "inputs": [],
      "name": "getPrice",
      "outputs": [
        {
          "internalType": "uint256",
          "name": "",
          "type": "uint256"
        }
      ],
      "stateMutability": "view",
      "type": "function"
    },
    {
      "inputs": [
        {
          "internalType": "bytes32",
          "name": "role",
          "type": "bytes32"
        }
      ],
      "name": "getRoleAdmin",
      "outputs": [
        {
          "internalType": "bytes32",
          "name": "",
          "type": "bytes32"
        }
      ],
      "stateMutability": "view",
      "type": "function"
    },
    {
      "inputs": [
        {
          "internalType": "bytes32",
          "name": "role",
          "type": "bytes32"
        },
        {
          "internalType": "address",
          "name": "account",
          "type": "address"
        }
      ],
      "name": "grantRole",
      "outputs": [],
      "stateMutability": "nonpayable",
      "type": "function"
    },
    {
      "inputs": [
        {
          "internalType": "bytes32",
          "name": "role",
          "type": "bytes32"
        },
        {
          "internalType": "address",
          "name": "account",
          "type": "address"
        }
      ],
      "name": "hasRole",
      "outputs": [
        {
          "internalType": "bool",
          "name": "",
          "type": "bool"
        }
      ],
      "stateMutability": "view",
      "type": "function"
    },
    {
      "inputs": [],
      "name": "initialize",
      "outputs": [],
      "stateMutability": "nonpayable",
      "type": "function"
    },
    {
      "inputs": [
        {
          "internalType": "address",
          "name": "",
          "type": "address"
        }
      ],
      "name": "isAssetApproved",
      "outputs": [
        {
          "internalType": "bool",
          "name": "",
          "type": "bool"
        }
      ],
      "stateMutability": "view",
      "type": "function"
    },
    {
      "inputs": [],
      "name": "latestRewards",
      "outputs": [
        {
          "internalType": "uint256",
          "name": "",
          "type": "uint256"
        }
      ],
      "stateMutability": "view",
      "type": "function"
    },
    {
      "inputs": [],
      "name": "nativeTokenDecimals",
      "outputs": [
        {
          "internalType": "uint256",
          "name": "",
          "type": "uint256"
        }
      ],
      "stateMutability": "view",
      "type": "function"
    },
    {
      "inputs": [],
      "name": "pause",
      "outputs": [],
      "stateMutability": "nonpayable",
      "type": "function"
    },
    {
      "inputs": [],
      "name": "pauseFeed",
      "outputs": [],
      "stateMutability": "nonpayable",
      "type": "function"
    },
    {
      "inputs": [
        {
          "internalType": "address",
          "name": "_token",
          "type": "address"
        }
      ],
      "name": "pauseFeed",
      "outputs": [],
      "stateMutability": "nonpayable",
      "type": "function"
    },
    {
      "inputs": [],
      "name": "paused",
      "outputs": [
        {
          "internalType": "bool",
          "name": "",
          "type": "bool"
        }
      ],
      "stateMutability": "view",
      "type": "function"
    },
    {
      "inputs": [],
      "name": "periodicity",
      "outputs": [
        {
          "internalType": "uint256",
          "name": "",
          "type": "uint256"
        }
      ],
      "stateMutability": "view",
      "type": "function"
    },
    {
      "inputs": [],
      "name": "proxiableUUID",
      "outputs": [
        {
          "internalType": "bytes32",
          "name": "",
          "type": "bytes32"
        }
      ],
      "stateMutability": "view",
      "type": "function"
    },
    {
      "inputs": [
        {
          "internalType": "address",
          "name": "_arbitrator",
          "type": "address"
        }
      ],
      "name": "removeArbitrator",
      "outputs": [],
      "stateMutability": "nonpayable",
      "type": "function"
    },
    {
      "inputs": [
        {
          "internalType": "address",
          "name": "_asset",
          "type": "address"
        }
      ],
      "name": "removeAsset",
      "outputs": [],
      "stateMutability": "nonpayable",
      "type": "function"
    },
    {
      "inputs": [
        {
          "internalType": "bytes32",
          "name": "role",
          "type": "bytes32"
        },
        {
          "internalType": "address",
          "name": "account",
          "type": "address"
        }
      ],
      "name": "renounceRole",
      "outputs": [],
      "stateMutability": "nonpayable",
      "type": "function"
    },
    {
      "inputs": [
        {
          "internalType": "bytes32",
          "name": "role",
          "type": "bytes32"
        },
        {
          "internalType": "address",
          "name": "account",
          "type": "address"
        }
      ],
      "name": "revokeRole",
      "outputs": [],
      "stateMutability": "nonpayable",
      "type": "function"
    },
    {
      "inputs": [
        {
          "internalType": "bytes32",
          "name": "",
          "type": "bytes32"
        },
        {
          "internalType": "address",
          "name": "",
          "type": "address"
        },
        {
          "internalType": "bytes32",
          "name": "",
          "type": "bytes32"
        }
      ],
      "name": "rewardState",
      "outputs": [
        {
          "internalType": "bool",
          "name": "",
          "type": "bool"
        }
      ],
      "stateMutability": "view",
      "type": "function"
    },
    {
      "inputs": [
        {
          "internalType": "uint256",
          "name": "",
          "type": "uint256"
        }
      ],
      "name": "rootHashes",
      "outputs": [
        {
          "internalType": "bytes32",
          "name": "",
          "type": "bytes32"
        }
      ],
      "stateMutability": "view",
      "type": "function"
    },
    {
      "inputs": [
        {
          "internalType": "address",
          "name": "_priceFeed",
          "type": "address"
        }
      ],
      "name": "setPriceFeed",
      "outputs": [],
      "stateMutability": "nonpayable",
      "type": "function"
    },
    {
      "inputs": [
        {
          "internalType": "address",
          "name": "_token",
          "type": "address"
        },
        {
          "internalType": "address",
          "name": "_priceFeed",
          "type": "address"
        }
      ],
      "name": "setPriceFeed",
      "outputs": [],
      "stateMutability": "nonpayable",
      "type": "function"
    },
    {
      "inputs": [
        {
          "internalType": "bytes4",
          "name": "interfaceId",
          "type": "bytes4"
        }
      ],
      "name": "supportsInterface",
      "outputs": [
        {
          "internalType": "bool",
          "name": "",
          "type": "bool"
        }
      ],
      "stateMutability": "view",
      "type": "function"
    },
    {
      "inputs": [
        {
          "internalType": "address",
          "name": "",
          "type": "address"
        }
      ],
      "name": "tokenToPriceFeed",
      "outputs": [
        {
          "internalType": "address",
          "name": "priceFeed",
          "type": "address"
        },
        {
          "internalType": "bool",
          "name": "paused",
          "type": "bool"
        }
      ],
      "stateMutability": "view",
      "type": "function"
    },
    {
      "inputs": [],
      "name": "unpause",
      "outputs": [],
      "stateMutability": "nonpayable",
      "type": "function"
    },
    {
      "inputs": [
        {
          "internalType": "address",
          "name": "_token",
          "type": "address"
        }
      ],
      "name": "unpauseFeed",
      "outputs": [],
      "stateMutability": "nonpayable",
      "type": "function"
    },
    {
      "inputs": [],
      "name": "unpauseFeed",
      "outputs": [],
      "stateMutability": "nonpayable",
      "type": "function"
    },
    {
      "inputs": [
        {
          "internalType": "address",
          "name": "newImplementation",
          "type": "address"
        }
      ],
      "name": "upgradeTo",
      "outputs": [],
      "stateMutability": "nonpayable",
      "type": "function"
    },
    {
      "inputs": [
        {
          "internalType": "address",
          "name": "newImplementation",
          "type": "address"
        },
        {
          "internalType": "bytes",
          "name": "data",
          "type": "bytes"
        }
      ],
      "name": "upgradeToAndCall",
      "outputs": [],
      "stateMutability": "payable",
      "type": "function"
    },
    {
      "inputs": [
        {
          "internalType": "address",
          "name": "",
          "type": "address"
        },
        {
          "internalType": "address",
          "name": "",
          "type": "address"
        }
      ],
      "name": "userBalances",
      "outputs": [
        {
          "internalType": "uint256",
          "name": "",
          "type": "uint256"
        }
      ],
      "stateMutability": "view",
      "type": "function"
    },
    {
      "inputs": [
        {
          "internalType": "address",
          "name": "",
          "type": "address"
        }
      ],
      "name": "userData",
      "outputs": [
        {
          "internalType": "uint256",
          "name": "lastUpdate",
          "type": "uint256"
        }
      ],
      "stateMutability": "view",
      "type": "function"
    },
    {
      "inputs": [
        {
          "internalType": "address",
          "name": "_asset",
          "type": "address"
        },
        {
          "internalType": "uint256",
          "name": "_amount",
          "type": "uint256"
        }
      ],
      "name": "userWithdraw",
      "outputs": [],
      "stateMutability": "nonpayable",
      "type": "function"
    },
    {
      "inputs": [
        {
          "internalType": "address payable",
          "name": "_to",
          "type": "address"
        },
        {
          "internalType": "uint256",
          "name": "_amount",
          "type": "uint256"
        }
      ],
      "name": "withdrawFunds",
      "outputs": [],
      "stateMutability": "nonpayable",
      "type": "function"
    }
  ],
  "transactionHash": "0x6727a4c99759c2673271fec16fb308ad16efa672e3422377ab893b290e86e3dc",
  "args": [],
  "numDeployments": 1,
  "solcInputHash": "26959548043902ef95596bfd9c190569",
  "bytecode": "0x60a080604052346100dd57306080526000549060ff8260081c1661008b575060ff80821610610050575b6040516132579081620000e382396080518181816112d3015281816114340152611bba0152f35b60ff90811916176000557f7f26b83ff96e1f2b6a682f133852f6798a09c465da95921460cefb3847402498602060405160ff8152a138610029565b62461bcd60e51b815260206004820152602760248201527f496e697469616c697a61626c653a20636f6e747261637420697320696e697469604482015266616c697a696e6760c81b6064820152608490fd5b600080fdfe60406080815260049081361015610021575b610019612e5b565b600161012e55005b600091823560e01c90816301fabd751461213a57816301ffc9a7146120e45781630d34ef491461208d57816312490f831461203a5781631b3accac14611ffb578163248a9ca314611fd057816327921d8b14611f7257816327e235e314611f395781632f2ff15d14611e9e57816336568abe14611e0c5781633659cfe614611b935781633e458a8e14611a3e5781633f4ba83a146119a857816341976e091461186357816347e7ef241461171c5781634a5e42b1146116b35781634d105379146116935781634f1ef286146113ba57816351d0ea371461137b57816352d1902d146112bd57816353b93557146112945781635c975abb14611270578163724e78da1461120f57816376e11286146111a25781638078f22c146111595781638129fc1c14610d075781638456cb5914610c735781638a009e9514610c345781638e6a8e0314610bec57816391d1485414610ba557816391e83ddc14610b41578163973ad27014610b0057816398d5fdca14610a6a578163a217fddf14610a4f578163a75995e41461098c578163ac07518a1461093b578163ad48cb5e1461091f578163adb51980146108d5578163bacf26da146105dc578163c107532914610391578163c891091314610354578163d547741f14610315578163eafe7a74146102f2578163edb0e9191461023b575063f4462d04036100115734610237578160031936011261023757602090610167549051908152f35b5080fd5b9050346102ee5760203660031901126102ee57803591610259612879565b610166918254610167549061026e8282612cf0565b60631981019081116102db5742106102bc575050508290428355428552610168602052842055547fe067874e1fbff518dab5b169a3c385ef76d19eef922f41ee11eb15c4ac72d7368380a380f35b60649351926343538a2160e01b84528301526024820152426044820152fd5b634e487b7160e01b885260118452602488fd5b8280fd5b50503461023757816003193601126102375760209060ff61016454169051908152f35b919050346102ee57806003193601126102ee57610351913561034c600161033a612199565b9383875260c96020528620015461299c565b612ae4565b80f35b5050346102375760203660031901126102375760209160019082906001600160a01b0361037f61217e565b16815261016185522001549051908152f35b83833461023757806003193601126102375782356001600160a01b03811691908290036102ee576024908135906000805160206130d78339815191529283865260209360c98552828720338852855260ff83882054161561043e5750508480808085885af16103fe612c88565b501561042f57519081527fba443e8671971c36cdeb74f87321041daff421230cbc5e36cb835269ed1d8b7e9190a280f35b51631fa55c0760e11b81528590fd5b868892869261044c33612d3a565b909186519261045a846121e0565b604284528584019460603687378451156105ca57603086538451906001918210156105b85790607860218701536041915b81831161055457505050610525575061052193869361050d936104fe6048946104d59a519a856000805160206130978339815191528d978801528251928391603789019101612a95565b8401917001034b99036b4b9b9b4b733903937b6329607d1b603784015251809386840190612a95565b010360288101875201856121fb565b5162461bcd60e51b81529283928301612ab8565b0390fd5b9250505081606494519362461bcd60e51b8552840152820152600080516020612fb78339815191526044820152fd5b909192600f811660108110156105a657600080516020613177833981519152901a61057f8589612d13565b53891c9280156105945760001901919061048b565b634e487b7160e01b825260118a528482fd5b634e487b7160e01b835260328b528583fd5b634e487b7160e01b8152603289528390fd5b634e487b7160e01b8152603288529050fd5b905082346108d25760a03660031901126108d257602492823592906001600160401b0385356044358281116108ce57366023820112156108ce5780850135918383116108bc5760059083821b9286519360209561063b878301876121fb565b85528b86860191830101913683116108b8578c879101915b8383106108a8575050506064356001600160a01b0381169a91508a81036108a45760843596828b52610168875283898c205403610894578851878101906106ae816106a08c873387612e39565b03601f1981018352826121fb565b51902089518881019182528881529091818b0190811182821017610882578a5251902096879b8b985b87518a101561072b5789871b8801890151908181101561071e578d528852898c205b98600019811461070c57600101986106d7565b634e487b7160e01b8d5260118c528e8dfd5b908d528852898c206106f9565b8c9650888b928f888f940361087257888a52610169808452858b20338c528452858b20828c528452600160ff878d20541615151461086257898b528352848a20338b528352848a20908a528252838920805460ff19166001179055806107d95750508680808086335af161079d612c88565b50156107cb5750600080516020613237833981519152916107c5915b51918291339583612eb2565b0390a480f35b9051631fa55c0760e11b8152fd5b818451809263a9059cbb60e01b8252818c816107f88b338b8401612eb2565b03925af191821561085857899261082b575b5050156107cb5750600080516020613237833981519152916107c5916107b9565b61084a9250803d10610851575b61084281836121fb565b810190612e21565b888061080a565b503d610838565b84513d8b823e3d90fd5b855163a308b6e360e01b81528590fd5b845163712eb08760e01b81528490fd5b634e487b7160e01b8d5260418c528e8dfd5b8851630f0ca1f160e31b81528a90fd5b8980fd5b8235815291810191879101610653565b8a80fd5b634e487b7160e01b8752604186528887fd5b8580fd5b80fd5b505034610237578060031936011261023757806020926108f361217e565b6108fb612199565b6001600160a01b039182168352610160865283832091168252845220549051908152f35b5050346102375781600319360112610237576020905160128152f35b5050346102375781600319360112610237576109556123ed565b81805261012d6020528120805460ff60a01b1981169091556001600160a01b0316816000805160206130b78339815191528180a380f35b919050346102ee5760203660031901126102ee576109a861217e565b916109b1612756565b6101649160ff83541685526101626020528085209360018060a01b0316938460018060a01b0319825416179055838552610163602052842060ff199060018282541617905582549160ff83169060ff8214610a3c5750600160ff910116911617905533907fa3495c60d252fbd76120e8aba53eb38d64d7d3fe172312e94591a5bf61e831c08380a380f35b634e487b7160e01b875260119052602486fd5b50503461023757816003193601126102375751908152602090f35b919050346102ee57826003193601126102ee5782805261012d602052808320548151633fabe5a360e21b81529260a09184919082906001600160a01b03165afa918215610af65760209392610ac1575b5051908152f35b610ae391925060a03d8111610aef575b610adb81836121fb565b810190612f41565b50505090509038610aba565b503d610ad1565b81513d85823e3d90fd5b50503461023757602036600319011261023757610b1b61217e565b610b23612239565b6001600160a01b031682526101656020528120805460ff1916905580f35b50503461023757602036600319011261023757610b5c61217e565b610b646123ed565b6001600160a01b0390811680845261012d602052918320805460ff60a01b198116600160a01b179091551690600080516020612f778339815191528380a380f35b9050346102ee57816003193601126102ee578160209360ff92610bc6612199565b9035825260c986528282206001600160a01b039091168252855220549151911615158152f35b8390346102375760203660031901126102375735610c08612879565b80610167557fa913928c3424fe74df830296b4e5a736a01d30d9454058f86298660547972b1a8280a280f35b5050346102375760203660031901126102375760209160ff9082906001600160a01b03610c5f61217e565b168152610163855220541690519015158152f35b9050346102ee57826003193601126102ee57610c8d612633565b6033549060ff8216610cd1575060ff1916600117603355513381527f62e78cea01bee320cd4e420270b5ea74000d11b0c9f74754ebdbfc544b05a25890602090a180f35b606490602084519162461bcd60e51b8352820152601060248201526f14185d5cd8589b194e881c185d5cd95960821b6044820152fd5b9050346102ee57826003193601126102ee5782549060ff90818360081c16159081809261114d575b8015611137575b156110dd5760019260ff199483858783161789556110cc575b50610d8281885460081c16610d6381612ecd565b610d6c81612ecd565b8660335416603355610d7d81612ecd565b612ecd565b86805260c994602095808752878920338a52875282888a20541615611099575b600080516020613197833981519152808a52818852888a20338b52885283898b20541615611064575b50600080516020613137833981519152808a52818852888a20338b52885283898b2054161561102f575b506000805160206130d7833981519152808a52818852888a20338b52885283898b20541615610ffa575b506000805160206131d7833981519152808a52818852888a20338b52885283898b20541615610fc5575b506000805160206130f7833981519152808a52818852888a20338b52885283898b20541615610f90575b50600080516020613077833981519152808a52818852888a20338b52885283898b20541615610f5b575b5060008051602061305783398151915292838a52818852888a20338b528852888a20541615610f25575b50505062015180610167556201517f19420190428211610a3c575061016655610eee578380f35b7f7f26b83ff96e1f2b6a682f133852f6798a09c465da95921460cefb38474024989261ff0019855416855551908152a13880808380f35b82895286528688203389528652848789209182541617905533903390600080516020612f978339815191528980a4388080610ec7565b808a52818852888a20338b528852888a20878482541617905533903390600080516020612f978339815191528c80a438610e9d565b808a52818852888a20338b528852888a20878482541617905533903390600080516020612f978339815191528c80a438610e73565b808a52818852888a20338b528852888a20878482541617905533903390600080516020612f978339815191528c80a438610e49565b808a52818852888a20338b528852888a20878482541617905533903390600080516020612f978339815191528c80a438610e1f565b808a52818852888a20338b528852888a20878482541617905533903390600080516020612f978339815191528c80a438610df5565b808a52818852888a20338b528852888a20878482541617905533903390600080516020612f978339815191528c80a438610dcb565b888052808752878920338a528752878920868382541617905533338a600080516020612f978339815191528180a4610da2565b61ffff191661010117875538610d4f565b608490602086519162461bcd60e51b8352820152602e60248201527f496e697469616c697a61626c653a20636f6e747261637420697320616c72656160448201526d191e481a5b9a5d1a585b1a5e995960921b6064820152fd5b50303b158015610d365750600183851614610d36565b50600183851610610d2f565b8284346108d25760203660031901126108d2576001600160a01b039060ff9083908361118361217e565b16815261012d60205220548351928116835260a01c1615156020820152f35b5050346102375780600319360112610237576111bc61217e565b906111c5612199565b916111ce6123ed565b6001600160a01b0390811680855261012d60205291842080546001600160a01b0319169390911692831790556000805160206130178339815191528380a380f35b5050346102375760203660031901126102375761122a61217e565b906112336123ed565b82805261012d602052822080546001600160a01b0319166001600160a01b039092169182179055816000805160206130178339815191528180a380f35b50503461023757816003193601126102375760209060ff6033541690519015158152f35b9050346102ee5760203660031901126102ee576020928291358152610168845220549051908152f35b905082346108d257806003193601126108d257507f00000000000000000000000000000000000000000000000000000000000000006001600160a01b0316300361131857602082516000805160206131578339815191528152f35b6020608492519162461bcd60e51b8352820152603860248201527f555550535570677261646561626c653a206d757374206e6f742062652063616c6044820152771b1959081d1a1c9bdd59da0819195b1959d85d1958d85b1b60421b6064820152fd5b5050346102375760203660031901126102375760209160ff9082906001600160a01b036113a661217e565b168152610165855220541690519015158152f35b918091506003193601126102ee576113d061217e565b916024918235906001600160401b0382116108ce57366023830112156108ce57818301356113fd8161221e565b611409835191826121fb565b8181528760209485830193368982840101116102ee5780898893018637830101526001600160a01b037f000000000000000000000000000000000000000000000000000000000000000081169061146230831415612b5a565b61147f600080516020613157833981519152928284541614612ba9565b611487612510565b6000805160206130378339815191525460ff16156114b057505050505050505061035190612bf8565b88959799949698169086516352d1902d60e01b815288818b81865afa869181611660575b5061152057875162461bcd60e51b8152808b018a9052602e818d015260008051602061321783398151915260448201526d6f6e206973206e6f74205555505360901b6064820152608490fd5b9992949891939599036116205761153689612bf8565b8551926000805160206131b78339815191528980a2835115801590611618575b611567575b50505050505050905080f35b883b156115dc5750505093809581926115ce9651915af4660819985a5b195960ca1b611591612c88565b927f416464726573733a206c6f772d6c6576656c2064656c65676174652063616c6c8151956115bf876121af565b60278752860152840152612cb8565b50803880808080808061155b565b62461bcd60e51b83528201869052602690820152600080516020612ff78339815191526044820152651b9d1c9858dd60d21b6064820152608490fd5b506001611556565b60296084928888519362461bcd60e51b85528401528201526000805160206131f78339815191526044820152681a58589b195555525160ba1b6064820152fd5b9091508981813d831161168c575b61167881836121fb565b81010312611688575190386114d4565b8680fd5b503d61166e565b505034610237578160031936011261023757602090610166549051908152f35b505034610237576020366003190112610237576116ce61217e565b6116d6612756565b6001600160a01b0316808352610163602052908220805460ff1916905533907f0fa1e4606af435f32f05b3804033d2933e691fab32ee74d2db6fa82d2741f1ea8380a380f35b8383806003193601126102375761173161217e565b6024359061173d612e5b565b6001600160a01b03168084526101636020908152838520549193909160ff161561185457836117ab57600080516020612fd7833981519152929394955033865261016082528086208680528252808620611798348254612cf0565b90555b519283523392a3600161012e5580f35b82156118455781836117d49697835197889283926323b872dd60e01b8452309033908501612e39565b038189885af194851561183b57600080516020612fd783398151915293949561181e575b5033865261016082528086208587528252808620611817858254612cf0565b905561179b565b61183490833d85116108515761084281836121fb565b50866117f8565b81513d88823e3d90fd5b5163fae8279160e01b81528590fd5b51632777659360e11b81528590fd5b919050346102ee57602092836003193601126108d257826001600160a01b0360a08161188d61217e565b169182855261012d88528585205416855196878092633fabe5a360e21b82525afa94851561197557908691849661197f575b50845163313ce56760e01b815291908290849082905afa801561197557839061193d575b60ff9150166012036012811161192a57604d811161192a57600a0a9384810294818604149015171561191757505051908152f35b634e487b7160e01b825260119052602490fd5b634e487b7160e01b835260118252602483fd5b508581813d831161196e575b61195381836121fb565b810103126102ee575160ff811681036102ee5760ff906118e3565b503d611949565b84513d85823e3d90fd5b839291965061199b9060a03d8111610aef57610adb81836121fb565b50505090509590916118bf565b9050346102ee57826003193601126102ee576119c2612633565b6033549060ff821615611a04575060ff1916603355513381527f5db9ee0a495bf2e6ff9c91a7834c1ba4fdd244a5e8aa4e537bd38aeae4b073aa90602090a180f35b606490602084519162461bcd60e51b8352820152601460248201527314185d5cd8589b194e881b9bdd081c185d5cd95960621b6044820152fd5b838334610237578060031936011261023757611a5861217e565b6001600160a01b031680835261016360209081528284205491926024359260ff1615611854578215611845573385526101608083528186208587528352838287205410611b835784611b29578580808087335af1611ab4612c88565b5015611b19575b33865282528085208486528252808520805490848203918211611b0657555191825233917f9b1bfa7fa9ee420a16e124f794c35ac9f90472acc99140eb2f6447c714cad8eb9190a380f35b634e487b7160e01b875260118852602487fd5b8151631fa55c0760e11b81528790fd5b815163a9059cbb60e01b8152838180611b4588338d8401612eb2565b03818a8a5af18015611b7957611b5c575b50611abb565b611b7290843d86116108515761084281836121fb565b5087611b56565b83513d89823e3d90fd5b8151632858f9ab60e11b81528790fd5b9050346102ee57602080600319360112611e0857611baf61217e565b926001600160a01b037f00000000000000000000000000000000000000000000000000000000000000008116611be730821415612b5a565b611c04600080516020613157833981519152918383541614612ba9565b611c0c612510565b8251848101929091906001600160401b03841183851017611df5578385528883526000805160206130378339815191525460ff1615611c55575050505050505061035190612bf8565b879894959697169085516352d1902d60e01b815287818a81865afa869181611dc6575b50611cc557865162461bcd60e51b8152808a01899052602e602482015260008051602061321783398151915260448201526d6f6e206973206e6f74205555505360901b6064820152608490fd5b97919293949703611d8357611cd988612bf8565b8451916000805160206131b78339815191528880a2825115801590611d7c575b611d09575b505050505050905080f35b873b15611d3f5750509380958192611d329651915af4660819985a5b195960ca1b611591612c88565b5080388080808080611cfe565b62461bcd60e51b8252810185905260266024820152600080516020612ff78339815191526044820152651b9d1c9858dd60d21b6064820152608490fd5b5086611cf9565b845162461bcd60e51b8152908101869052602960248201526000805160206131f78339815191526044820152681a58589b195555525160ba1b6064820152608490fd5b9091508881813d8311611dee575b611dde81836121fb565b8101031261168857519038611c78565b503d611dd4565b634e487b7160e01b895260418752602489fd5b8380fd5b83915034610237578260031936011261023757611e27612199565b90336001600160a01b03831603611e4357906103519135612ae4565b608490602085519162461bcd60e51b8352820152602f60248201527f416363657373436f6e74726f6c3a2063616e206f6e6c792072656e6f756e636560448201526e103937b632b9903337b91039b2b63360891b6064820152fd5b9050346102ee57816003193601126102ee573590611eba612199565b9082845260c9602052611ed26001828620015461299c565b82845260c960209081528185206001600160a01b039093168086529290528084205460ff1615611f00578380f35b82845260c96020528084208285526020528320600160ff198254161790553391600080516020612f978339815191528480a43880808380f35b5050346102375760203660031901126102375760209181906001600160a01b03611f6161217e565b16815261016a845220549051908152f35b50503461023757602036600319011261023757611f8d61217e565b611f956123ed565b6001600160a01b0390811680845261012d602052918320805460ff60a01b19811690915516906000805160206130b78339815191528380a380f35b9050346102ee5760203660031901126102ee578160209360019235815260c985522001549051908152f35b9050346102ee5760203660031901126102ee573560ff81168091036102ee5782526101626020908152918190205490516001600160a01b039091168152f35b9050346102ee5760603660031901126102ee578160209360ff9261205c612199565b9035825261016986528282206001600160a01b03909116825285528181206044358252855220549151911615158152f35b5050346102375781600319360112610237576120a76123ed565b81805261012d6020528120805460ff60a01b198116600160a01b179091556001600160a01b031681600080516020612f778339815191528180a380f35b9050346102ee5760203660031901126102ee57359063ffffffff60e01b82168092036102ee5760209250637965db0b60e01b8214918215612129575b50519015158152f35b6301ffc9a760e01b14915038612120565b5050346102375760203660031901126102375761215561217e565b61215d612239565b6001600160a01b031682526101656020528120805460ff1916600117905580f35b600435906001600160a01b038216820361219457565b600080fd5b602435906001600160a01b038216820361219457565b606081019081106001600160401b038211176121ca57604052565b634e487b7160e01b600052604160045260246000fd5b608081019081106001600160401b038211176121ca57604052565b601f909101601f19168101906001600160401b038211908210176121ca57604052565b6001600160401b0381116121ca57601f01601f191660200190565b3360009081527f26f2d8af70d3aa0f24ccd19abd2bd0f8a09a7bc89cde121a33379063702ee85d60209081526040808320549092906000805160206130f78339815191529060ff161561228c5750505050565b61229533612d3a565b8451916122a1836121e0565b604283528483019360603686378351156123d957603085538351906001918210156123d95790607860218601536041915b81831161237057505050612340576104d593859361232a9361231b604894610521995198856000805160206130978339815191528b978801528251928391603789019101612a95565b010360288101855201836121fb565b5162461bcd60e51b815291829160048301612ab8565b60648486519062461bcd60e51b82528060048301526024820152600080516020612fb78339815191526044820152fd5b909192600f811660108110156123c557600080516020613177833981519152901a61239b8588612d13565b5360041c9280156123b1576000190191906122d2565b634e487b7160e01b82526011600452602482fd5b634e487b7160e01b83526032600452602483fd5b634e487b7160e01b81526032600452602490fd5b3360009081527fc87b7078e4b3fedec5a1ae7d8c8091329d5ab20330df40a37d6c20d6bdd5bc5560209081526040808320549092906000805160206130778339815191529060ff16156124405750505050565b61244933612d3a565b845191612455836121e0565b604283528483019360603686378351156123d957603085538351906001918210156123d95790607860218601536041915b8183116124cf57505050612340576104d593859361232a9361231b604894610521995198856000805160206130978339815191528b978801528251928391603789019101612a95565b909192600f811660108110156123c557600080516020613177833981519152901a6124fa8588612d13565b5360041c9280156123b157600019019190612486565b3360009081527f5bd066a11de3c39d5a00651506dcc7d8e5d6a879bde036d3aa74ff1af7e9549560209081526040808320549092906000805160206131378339815191529060ff16156125635750505050565b61256c33612d3a565b845191612578836121e0565b604283528483019360603686378351156123d957603085538351906001918210156123d95790607860218601536041915b8183116125f257505050612340576104d593859361232a9361231b604894610521995198856000805160206130978339815191528b978801528251928391603789019101612a95565b909192600f811660108110156123c557600080516020613177833981519152901a61261d8588612d13565b5360041c9280156123b1576000190191906125a9565b3360009081527f69740cd0ab091be8193e004660c49ef128fdf47ef95c5cc8c747e37ac0379df860209081526040808320549092906000805160206131978339815191529060ff16156126865750505050565b61268f33612d3a565b84519161269b836121e0565b604283528483019360603686378351156123d957603085538351906001918210156123d95790607860218601536041915b81831161271557505050612340576104d593859361232a9361231b604894610521995198856000805160206130978339815191528b978801528251928391603789019101612a95565b909192600f811660108110156123c557600080516020613177833981519152901a6127408588612d13565b5360041c9280156123b1576000190191906126cc565b3360009081527fbe49e1eb90829d5d3765514dc6c583041d6d67da693d6cae4641f6deefca480e60209081526040808320549092906000805160206131d78339815191529060ff16156127a95750505050565b6127b233612d3a565b8451916127be836121e0565b604283528483019360603686378351156123d957603085538351906001918210156123d95790607860218601536041915b81831161283857505050612340576104d593859361232a9361231b604894610521995198856000805160206130978339815191528b978801528251928391603789019101612a95565b909192600f811660108110156123c557600080516020613177833981519152901a6128638588612d13565b5360041c9280156123b1576000190191906127ef565b3360009081527f037f099d0189b048bfa4ee20f2b74a1c86a820107e468c2d8af315537d50341660209081526040808320549092906000805160206130578339815191529060ff16156128cc5750505050565b6128d533612d3a565b8451916128e1836121e0565b604283528483019360603686378351156123d957603085538351906001918210156123d95790607860218601536041915b81831161295b57505050612340576104d593859361232a9361231b604894610521995198856000805160206130978339815191528b978801528251928391603789019101612a95565b909192600f811660108110156123c557600080516020613177833981519152901a6129868588612d13565b5360041c9280156123b157600019019190612912565b600081815260209060c98252604092838220338352835260ff8483205416156129c55750505050565b6129ce33612d3a565b8451916129da836121e0565b604283528483019360603686378351156123d957603085538351906001918210156123d95790607860218601536041915b818311612a5457505050612340576104d593859361232a9361231b604894610521995198856000805160206130978339815191528b978801528251928391603789019101612a95565b909192600f811660108110156123c557600080516020613177833981519152901a612a7f8588612d13565b5360041c9280156123b157600019019190612a0b565b60005b838110612aa85750506000910152565b8181015183820152602001612a98565b60409160208252612ad88151809281602086015260208686019101612a95565b601f01601f1916010190565b9060009180835260c9602052604083209160018060a01b03169182845260205260ff604084205416612b1557505050565b80835260c9602052604083208284526020526040832060ff1981541690557ff6391f5c32d9c69d2a47ea670b442974b53935d1edc7fd64eb21e047a839171b339380a4565b15612b6157565b60405162461bcd60e51b815260206004820152602c602482015260008051602061311783398151915260448201526b19195b1959d85d1958d85b1b60a21b6064820152608490fd5b15612bb057565b60405162461bcd60e51b815260206004820152602c602482015260008051602061311783398151915260448201526b6163746976652070726f787960a01b6064820152608490fd5b803b15612c2d5760008051602061315783398151915280546001600160a01b0319166001600160a01b03909216919091179055565b60405162461bcd60e51b815260206004820152602d60248201527f455243313936373a206e657720696d706c656d656e746174696f6e206973206e60448201526c1bdd08184818dbdb9d1c9858dd609a1b6064820152608490fd5b3d15612cb3573d90612c998261221e565b91612ca760405193846121fb565b82523d6000602084013e565b606090565b90919015612cc4575090565b815115612cd45750805190602001fd5b60405162461bcd60e51b81529081906105219060048301612ab8565b91908201809211612cfd57565b634e487b7160e01b600052601160045260246000fd5b908151811015612d24570160200190565b634e487b7160e01b600052603260045260246000fd5b60405190612d47826121af565b602a8252602082016040368237825115612d2457603090538151600190811015612d2457607860218401536029905b808211612db8575050612d865790565b606460405162461bcd60e51b81526020600482015260206024820152600080516020612fb78339815191526044820152fd5b9091600f81166010811015612e0c57600080516020613177833981519152901a612de28486612d13565b5360041c918015612df7576000190190612d76565b60246000634e487b7160e01b81526011600452fd5b60246000634e487b7160e01b81526032600452fd5b90816020910312612194575180151581036121945790565b6001600160a01b03918216815291166020820152604081019190915260600190565b61012e6002815414612e6d5760029055565b60405162461bcd60e51b815260206004820152601f60248201527f5265656e7472616e637947756172643a207265656e7472616e742063616c6c006044820152606490fd5b6001600160a01b039091168152602081019190915260400190565b15612ed457565b60405162461bcd60e51b815260206004820152602b60248201527f496e697469616c697a61626c653a20636f6e7472616374206973206e6f74206960448201526a6e697469616c697a696e6760a81b6064820152608490fd5b51906001600160501b038216820361219457565b908160a091031261219457612f5581612f2d565b91602082015191604081015191612f73608060608401519301612f2d565b9056febf02bcf6f349625110ce7381ead18f77b5c1d8a3893fd0379ba1cf62261ad7f42f8788117e7eff1d82e926ec794901d17c78024a50270940304540a733656f0d537472696e67733a20686578206c656e67746820696e73756666696369656e745548c837ab068cf56a2c2479df0882a4922fd203edb7517321831d95078c5f62416464726573733a2064656c65676174652063616c6c20746f206e6f6e2d636fd2d8394cf7549a5ddbc2ba3dd7b2de8d53c891472d1f2907008ed6a10045fdae4910fdfa16fed3260ed0e7147f7cc6da11a60208b5b9406d12a635614ffd9143db6fbae5cd13d8264d7ed12219ef2882c1e83b8b12f47819baa96f32f69a1682c307c44629779eb8fc0b85f224c3d22f5876a6c84de0ee42d481eb7814f0d3a8416363657373436f6e74726f6c3a206163636f756e7420000000000000000000da5ecaabba1bcdefef1f26d87f7fe8d8ee4eeadc65a8d5e0d7c522871db318449d98d3d08f0062b192694645e127c98e5f96f3bbec331d061acaac3ace2327f916ceee8289685dd2a02b9c8ae81d2df373176ce53519e6284e2a2950d6546ffa46756e6374696f6e206d7573742062652063616c6c6564207468726f75676820189ab7a9244df0848122154315af71fe140f3db0fe014031783b0946b8c9d2e3360894a13ba1a3210667c828492db98dca3e2076cc3735a920a3ca505d382bbc303132333435363738396162636465660000000000000000000000000000000065d7a28e3265b37a6474929f336521b332c1681b933f6cb9f3376673440d862abc7cd75a20ee27fd9adebab32041f755214dbc6bffa90cc0225b39da2e5c2d3bb1fadd3142ab2ad7f1337ea4d97112bcc8337fc11ce5b20cb04ad038adf9981945524331393637557067726164653a20756e737570706f727465642070726f7845524331393637557067726164653a206e657720696d706c656d656e746174695b649e8688d3cce5355614678620abd5c08db9a921bee3684d794b7b8d1f7465",
  "devdoc": {
    "custom:security-contact": "jovi@gamepayy.com",
    "events": {
      "AdminChanged(address,address)": {
        "details": "Emitted when the admin account has changed."
      },
      "BeaconUpgraded(address)": {
        "details": "Emitted when the beacon is changed."
      },
      "Initialized(uint8)": {
        "details": "Triggered when the contract has been initialized or reinitialized."
      },
      "Paused(address)": {
        "details": "Emitted when the pause is triggered by `account`."
      },
      "RoleAdminChanged(bytes32,bytes32,bytes32)": {
        "details": "Emitted when `newAdminRole` is set as ``role``'s admin role, replacing `previousAdminRole` `DEFAULT_ADMIN_ROLE` is the starting admin for all roles, despite {RoleAdminChanged} not being emitted signaling this. _Available since v3.1._"
      },
      "RoleGranted(bytes32,address,address)": {
        "details": "Emitted when `account` is granted `role`. `sender` is the account that originated the contract call, an admin role bearer except when using {AccessControl-_setupRole}."
      },
      "RoleRevoked(bytes32,address,address)": {
        "details": "Emitted when `account` is revoked `role`. `sender` is the account that originated the contract call:   - if using `revokeRole`, it is the admin role bearer   - if using `renounceRole`, it is the role bearer (i.e. `account`)"
      },
      "Unpaused(address)": {
        "details": "Emitted when the pause is lifted by `account`."
      },
      "Upgraded(address)": {
        "details": "Emitted when the implementation is upgraded."
      }
    },
    "kind": "dev",
    "methods": {
      "constructor": {
        "custom:oz-upgrades-unsafe-allow": "constructor"
      },
      "getRoleAdmin(bytes32)": {
        "details": "Returns the admin role that controls `role`. See {grantRole} and {revokeRole}. To change a role's admin, use {_setRoleAdmin}."
      },
      "grantRole(bytes32,address)": {
        "details": "Grants `role` to `account`. If `account` had not been already granted `role`, emits a {RoleGranted} event. Requirements: - the caller must have ``role``'s admin role. May emit a {RoleGranted} event."
      },
      "hasRole(bytes32,address)": {
        "details": "Returns `true` if `account` has been granted `role`."
      },
      "paused()": {
        "details": "Returns true if the contract is paused, and false otherwise."
      },
      "proxiableUUID()": {
        "details": "Implementation of the ERC1822 {proxiableUUID} function. This returns the storage slot used by the implementation. It is used to validate the implementation's compatibility when performing an upgrade. IMPORTANT: A proxy pointing at a proxiable contract should not be considered proxiable itself, because this risks bricking a proxy that upgrades to it, by delegating to itself until out of gas. Thus it is critical that this function revert if invoked through a proxy. This is guaranteed by the `notDelegated` modifier."
      },
      "renounceRole(bytes32,address)": {
        "details": "Revokes `role` from the calling account. Roles are often managed via {grantRole} and {revokeRole}: this function's purpose is to provide a mechanism for accounts to lose their privileges if they are compromised (such as when a trusted device is misplaced). If the calling account had been revoked `role`, emits a {RoleRevoked} event. Requirements: - the caller must be `account`. May emit a {RoleRevoked} event."
      },
      "revokeRole(bytes32,address)": {
        "details": "Revokes `role` from `account`. If `account` had been granted `role`, emits a {RoleRevoked} event. Requirements: - the caller must have ``role``'s admin role. May emit a {RoleRevoked} event."
      },
      "supportsInterface(bytes4)": {
        "details": "See {IERC165-supportsInterface}."
      },
      "upgradeTo(address)": {
        "details": "Upgrade the implementation of the proxy to `newImplementation`. Calls {_authorizeUpgrade}. Emits an {Upgraded} event."
      },
      "upgradeToAndCall(address,bytes)": {
        "details": "Upgrade the implementation of the proxy to `newImplementation`, and subsequently execute the function call encoded in `data`. Calls {_authorizeUpgrade}. Emits an {Upgraded} event."
      }
    },
    "version": 1
  },
  "userdoc": {
    "kind": "user",
    "methods": {},
    "version": 1
  },
  "storageLayout": {
    "storage": [
      {
        "astId": 857,
        "contract": "contracts/GPCore.sol:GPCore",
        "label": "_initialized",
        "offset": 0,
        "slot": "0",
        "type": "t_uint8"
      },
      {
        "astId": 860,
        "contract": "contracts/GPCore.sol:GPCore",
        "label": "_initializing",
        "offset": 1,
        "slot": "0",
        "type": "t_bool"
      },
      {
        "astId": 1680,
        "contract": "contracts/GPCore.sol:GPCore",
        "label": "__gap",
        "offset": 0,
        "slot": "1",
        "type": "t_array(t_uint256)50_storage"
      },
      {
        "astId": 1176,
        "contract": "contracts/GPCore.sol:GPCore",
        "label": "_paused",
        "offset": 0,
        "slot": "51",
        "type": "t_bool"
      },
      {
        "astId": 1281,
        "contract": "contracts/GPCore.sol:GPCore",
        "label": "__gap",
        "offset": 0,
        "slot": "52",
        "type": "t_array(t_uint256)49_storage"
      },
      {
        "astId": 839,
        "contract": "contracts/GPCore.sol:GPCore",
        "label": "__gap",
        "offset": 0,
        "slot": "101",
        "type": "t_array(t_uint256)50_storage"
      },
      {
        "astId": 1959,
        "contract": "contracts/GPCore.sol:GPCore",
        "label": "__gap",
        "offset": 0,
        "slot": "151",
        "type": "t_array(t_uint256)50_storage"
      },
      {
        "astId": 85,
        "contract": "contracts/GPCore.sol:GPCore",
        "label": "_roles",
        "offset": 0,
        "slot": "201",
        "type": "t_mapping(t_bytes32,t_struct(RoleData)80_storage)"
      },
      {
        "astId": 380,
        "contract": "contracts/GPCore.sol:GPCore",
        "label": "__gap",
        "offset": 0,
        "slot": "202",
        "type": "t_array(t_uint256)49_storage"
      },
      {
        "astId": 1154,
        "contract": "contracts/GPCore.sol:GPCore",
        "label": "__gap",
        "offset": 0,
        "slot": "251",
        "type": "t_array(t_uint256)50_storage"
      },
      {
        "astId": 3995,
        "contract": "contracts/GPCore.sol:GPCore",
        "label": "tokenToPriceFeed",
        "offset": 0,
        "slot": "301",
        "type": "t_mapping(t_address,t_struct(TokenData)4684_storage)"
      },
      {
        "astId": 1296,
        "contract": "contracts/GPCore.sol:GPCore",
        "label": "_status",
        "offset": 0,
        "slot": "302",
        "type": "t_uint256"
      },
      {
        "astId": 1354,
        "contract": "contracts/GPCore.sol:GPCore",
        "label": "__gap",
        "offset": 0,
        "slot": "303",
        "type": "t_array(t_uint256)49_storage"
      },
      {
        "astId": 3504,
        "contract": "contracts/GPCore.sol:GPCore",
        "label": "userBalances",
        "offset": 0,
        "slot": "352",
        "type": "t_mapping(t_address,t_mapping(t_address,t_uint256))"
      },
      {
        "astId": 3509,
        "contract": "contracts/GPCore.sol:GPCore",
        "label": "userData",
        "offset": 0,
        "slot": "353",
        "type": "t_mapping(t_address,t_struct(UserAssetData)4679_storage)"
      },
      {
        "astId": 3513,
        "contract": "contracts/GPCore.sol:GPCore",
        "label": "assets",
        "offset": 0,
        "slot": "354",
        "type": "t_mapping(t_uint8,t_address)"
      },
      {
        "astId": 3517,
        "contract": "contracts/GPCore.sol:GPCore",
        "label": "isAssetApproved",
        "offset": 0,
        "slot": "355",
        "type": "t_mapping(t_address,t_bool)"
      },
      {
        "astId": 3519,
        "contract": "contracts/GPCore.sol:GPCore",
        "label": "assetCount",
        "offset": 0,
        "slot": "356",
        "type": "t_uint8"
      },
      {
        "astId": 3452,
        "contract": "contracts/GPCore.sol:GPCore",
        "label": "arbitrators",
        "offset": 0,
        "slot": "357",
        "type": "t_mapping(t_address,t_bool)"
      },
      {
        "astId": 4264,
        "contract": "contracts/GPCore.sol:GPCore",
        "label": "latestRewards",
        "offset": 0,
        "slot": "358",
        "type": "t_uint256"
      },
      {
        "astId": 4266,
        "contract": "contracts/GPCore.sol:GPCore",
        "label": "periodicity",
        "offset": 0,
        "slot": "359",
        "type": "t_uint256"
      },
      {
        "astId": 4270,
        "contract": "contracts/GPCore.sol:GPCore",
        "label": "rootHashes",
        "offset": 0,
        "slot": "360",
        "type": "t_mapping(t_uint256,t_bytes32)"
      },
      {
        "astId": 4278,
        "contract": "contracts/GPCore.sol:GPCore",
        "label": "rewardState",
        "offset": 0,
        "slot": "361",
        "type": "t_mapping(t_bytes32,t_mapping(t_address,t_mapping(t_bytes32,t_bool)))"
      },
      {
        "astId": 3857,
        "contract": "contracts/GPCore.sol:GPCore",
        "label": "balances",
        "offset": 0,
        "slot": "362",
        "type": "t_mapping(t_address,t_uint256)"
      }
    ],
    "types": {
      "t_address": {
        "encoding": "inplace",
        "label": "address",
        "numberOfBytes": "20"
      },
      "t_array(t_uint256)49_storage": {
        "base": "t_uint256",
        "encoding": "inplace",
        "label": "uint256[49]",
        "numberOfBytes": "1568"
      },
      "t_array(t_uint256)50_storage": {
        "base": "t_uint256",
        "encoding": "inplace",
        "label": "uint256[50]",
        "numberOfBytes": "1600"
      },
      "t_array(t_uint8)dyn_storage": {
        "base": "t_uint8",
        "encoding": "dynamic_array",
        "label": "uint8[]",
        "numberOfBytes": "32"
      },
      "t_bool": {
        "encoding": "inplace",
        "label": "bool",
        "numberOfBytes": "1"
      },
      "t_bytes32": {
        "encoding": "inplace",
        "label": "bytes32",
        "numberOfBytes": "32"
      },
      "t_mapping(t_address,t_bool)": {
        "encoding": "mapping",
        "key": "t_address",
        "label": "mapping(address => bool)",
        "numberOfBytes": "32",
        "value": "t_bool"
      },
      "t_mapping(t_address,t_mapping(t_address,t_uint256))": {
        "encoding": "mapping",
        "key": "t_address",
        "label": "mapping(address => mapping(address => uint256))",
        "numberOfBytes": "32",
        "value": "t_mapping(t_address,t_uint256)"
      },
      "t_mapping(t_address,t_mapping(t_bytes32,t_bool))": {
        "encoding": "mapping",
        "key": "t_address",
        "label": "mapping(address => mapping(bytes32 => bool))",
        "numberOfBytes": "32",
        "value": "t_mapping(t_bytes32,t_bool)"
      },
      "t_mapping(t_address,t_struct(TokenData)4684_storage)": {
        "encoding": "mapping",
        "key": "t_address",
        "label": "mapping(address => struct DataTypes.TokenData)",
        "numberOfBytes": "32",
        "value": "t_struct(TokenData)4684_storage"
      },
      "t_mapping(t_address,t_struct(UserAssetData)4679_storage)": {
        "encoding": "mapping",
        "key": "t_address",
        "label": "mapping(address => struct DataTypes.UserAssetData)",
        "numberOfBytes": "32",
        "value": "t_struct(UserAssetData)4679_storage"
      },
      "t_mapping(t_address,t_uint256)": {
        "encoding": "mapping",
        "key": "t_address",
        "label": "mapping(address => uint256)",
        "numberOfBytes": "32",
        "value": "t_uint256"
      },
      "t_mapping(t_bytes32,t_bool)": {
        "encoding": "mapping",
        "key": "t_bytes32",
        "label": "mapping(bytes32 => bool)",
        "numberOfBytes": "32",
        "value": "t_bool"
      },
      "t_mapping(t_bytes32,t_mapping(t_address,t_mapping(t_bytes32,t_bool)))": {
        "encoding": "mapping",
        "key": "t_bytes32",
        "label": "mapping(bytes32 => mapping(address => mapping(bytes32 => bool)))",
        "numberOfBytes": "32",
        "value": "t_mapping(t_address,t_mapping(t_bytes32,t_bool))"
      },
      "t_mapping(t_bytes32,t_struct(RoleData)80_storage)": {
        "encoding": "mapping",
        "key": "t_bytes32",
        "label": "mapping(bytes32 => struct AccessControlUpgradeable.RoleData)",
        "numberOfBytes": "32",
        "value": "t_struct(RoleData)80_storage"
      },
      "t_mapping(t_uint256,t_bytes32)": {
        "encoding": "mapping",
        "key": "t_uint256",
        "label": "mapping(uint256 => bytes32)",
        "numberOfBytes": "32",
        "value": "t_bytes32"
      },
      "t_mapping(t_uint8,t_address)": {
        "encoding": "mapping",
        "key": "t_uint8",
        "label": "mapping(uint8 => address)",
        "numberOfBytes": "32",
        "value": "t_address"
      },
      "t_struct(RoleData)80_storage": {
        "encoding": "inplace",
        "label": "struct AccessControlUpgradeable.RoleData",
        "members": [
          {
            "astId": 77,
            "contract": "contracts/GPCore.sol:GPCore",
            "label": "members",
            "offset": 0,
            "slot": "0",
            "type": "t_mapping(t_address,t_bool)"
          },
          {
            "astId": 79,
            "contract": "contracts/GPCore.sol:GPCore",
            "label": "adminRole",
            "offset": 0,
            "slot": "1",
            "type": "t_bytes32"
          }
        ],
        "numberOfBytes": "64"
      },
      "t_struct(TokenData)4684_storage": {
        "encoding": "inplace",
        "label": "struct DataTypes.TokenData",
        "members": [
          {
            "astId": 4681,
            "contract": "contracts/GPCore.sol:GPCore",
            "label": "priceFeed",
            "offset": 0,
            "slot": "0",
            "type": "t_address"
          },
          {
            "astId": 4683,
            "contract": "contracts/GPCore.sol:GPCore",
            "label": "paused",
            "offset": 20,
            "slot": "0",
            "type": "t_bool"
          }
        ],
        "numberOfBytes": "32"
      },
      "t_struct(UserAssetData)4679_storage": {
        "encoding": "inplace",
        "label": "struct DataTypes.UserAssetData",
        "members": [
          {
            "astId": 4676,
            "contract": "contracts/GPCore.sol:GPCore",
            "label": "assetsHeld",
            "offset": 0,
            "slot": "0",
            "type": "t_array(t_uint8)dyn_storage"
          },
          {
            "astId": 4678,
            "contract": "contracts/GPCore.sol:GPCore",
            "label": "lastUpdate",
            "offset": 0,
            "slot": "1",
            "type": "t_uint256"
          }
        ],
        "numberOfBytes": "64"
      },
      "t_uint256": {
        "encoding": "inplace",
        "label": "uint256",
        "numberOfBytes": "32"
      },
      "t_uint8": {
        "encoding": "inplace",
        "label": "uint8",
        "numberOfBytes": "1"
      }
    }
  }
}